{
  "_format": "hh-sol-artifact-1",
  "contractName": "MixedSwapToken",
  "sourceName": "contracts/MixedSwapToken.sol",
  "abi": [
    {
      "inputs": [],
      "name": "DAI",
      "outputs": [
        {
          "internalType": "address",
          "name": "",
          "type": "address"
        }
      ],
      "stateMutability": "view",
      "type": "function"
    },
    {
      "inputs": [],
      "name": "USDC",
      "outputs": [
        {
          "internalType": "address",
          "name": "",
          "type": "address"
        }
      ],
      "stateMutability": "view",
      "type": "function"
    },
    {
      "inputs": [],
      "name": "WETH",
      "outputs": [
        {
          "internalType": "address",
          "name": "",
          "type": "address"
        }
      ],
      "stateMutability": "view",
      "type": "function"
    },
    {
      "inputs": [
        {
          "internalType": "uint256",
          "name": "amountTokenIn",
          "type": "uint256"
        }
      ],
      "name": "mixedSwapTokenExactInput",
      "outputs": [
        {
          "internalType": "uint256",
          "name": "amountTokenOut",
          "type": "uint256"
        }
      ],
      "stateMutability": "nonpayable",
      "type": "function"
    },
    {
      "inputs": [
        {
          "internalType": "uint256",
          "name": "amountTokenOut",
          "type": "uint256"
        },
        {
          "internalType": "uint256",
          "name": "amountTokenInMax",
          "type": "uint256"
        }
      ],
      "name": "mixedSwapTokenExactOutput",
      "outputs": [
        {
          "internalType": "uint256",
          "name": "amountTokenIn",
          "type": "uint256"
        }
      ],
      "stateMutability": "nonpayable",
      "type": "function"
    },
    {
      "inputs": [],
      "name": "swapRouter",
      "outputs": [
        {
          "internalType": "contract ISwapRouter",
          "name": "",
          "type": "address"
        }
      ],
      "stateMutability": "view",
      "type": "function"
    }
  ],
  "bytecode": "0x608060405234801561001057600080fd5b50610ae9806100206000396000f3fe608060405234801561001057600080fd5b50600436106100725760003560e01c8063e0bab4c411610050578063e0bab4c4146100a5578063e116e246146100ad578063e3308d36146100cd57610072565b806389a3027114610077578063ad5c464814610095578063c31c9c071461009d575b600080fd5b61007f6100e0565b60405161008c9190610a83565b60405180910390f35b61007f6100f8565b61007f610110565b61007f610128565b6100c06100bb366004610965565b610140565b60405161008c9190610aaa565b6100c06100db366004610935565b61032a565b73a0b86991c6218b36c1d19d4a2e9eb0ce3606eb4881565b73c02aaa39b223fe8d0a0e5c4f27ead9083c756cc281565b73e592427a0aece92de3edee1f18e0157c0586156481565b736b175474e89094c44da98b954eedeac495271d0f81565b600061016273c02aaa39b223fe8d0a0e5c4f27ead9083c756cc23330856104ad565b61019573c02aaa39b223fe8d0a0e5c4f27ead9083c756cc273e592427a0aece92de3edee1f18e0157c0586156484610638565b6040805160a08101909152600090806101f4736b175474e89094c44da98b954eedeac495271d0f606473a0b86991c6218b36c1d19d4a2e9eb0ce3606eb48610bb873c02aaa39b223fe8d0a0e5c4f27ead9083c756cc260c08701610a19565b60408051601f198184030181529181529082523360208301524282820152606082018790526080909101859052517ff28c049800000000000000000000000000000000000000000000000000000000815290915073e592427a0aece92de3edee1f18e0157c058615649063f28c049890610272908490600401610a97565b602060405180830381600087803b15801561028c57600080fd5b505af11580156102a0573d6000803e3d6000fd5b505050506040513d601f19601f820116820180604052508101906102c4919061094d565b9150828210156103235761030273c02aaa39b223fe8d0a0e5c4f27ead9083c756cc273e592427a0aece92de3edee1f18e0157c058615646000610638565b61032373c02aaa39b223fe8d0a0e5c4f27ead9083c756cc2338486036107ba565b5092915050565b600061034c73c02aaa39b223fe8d0a0e5c4f27ead9083c756cc23330856104ad565b61037f73c02aaa39b223fe8d0a0e5c4f27ead9083c756cc273e592427a0aece92de3edee1f18e0157c0586156484610638565b6040805160a08101909152600090806103de73c02aaa39b223fe8d0a0e5c4f27ead9083c756cc2610bb873a0b86991c6218b36c1d19d4a2e9eb0ce3606eb486064736b175474e89094c44da98b954eedeac495271d0f60c08701610a19565b6040516020818303038152906040528152602001336001600160a01b031681526020014281526020018481526020016000815250905073e592427a0aece92de3edee1f18e0157c058615646001600160a01b031663c04b8d59826040518263ffffffff1660e01b81526004016104549190610a97565b602060405180830381600087803b15801561046e57600080fd5b505af1158015610482573d6000803e3d6000fd5b505050506040513d601f19601f820116820180604052508101906104a6919061094d565b9392505050565b604080516001600160a01b0385811660248301528481166044830152606480830185905283518084039091018152608490920183526020820180516001600160e01b03167f23b872dd00000000000000000000000000000000000000000000000000000000178152925182516000948594938a169392918291908083835b6020831061054a5780518252601f19909201916020918201910161052b565b6001836020036101000a0380198251168184511680821785525050505050509050019150506000604051808303816000865af19150503d80600081146105ac576040519150601f19603f3d011682016040523d82523d6000602084013e6105b1565b606091505b50915091508180156105df5750805115806105df57508080602001905160208110156105dc57600080fd5b50515b610630576040805162461bcd60e51b815260206004820152600360248201527f5354460000000000000000000000000000000000000000000000000000000000604482015290519081900360640190fd5b505050505050565b604080516001600160a01b038481166024830152604480830185905283518084039091018152606490920183526020820180516001600160e01b03167f095ea7b3000000000000000000000000000000000000000000000000000000001781529251825160009485949389169392918291908083835b602083106106cd5780518252601f1990920191602091820191016106ae565b6001836020036101000a0380198251168184511680821785525050505050509050019150506000604051808303816000865af19150503d806000811461072f576040519150601f19603f3d011682016040523d82523d6000602084013e610734565b606091505b5091509150818015610762575080511580610762575080806020019051602081101561075f57600080fd5b50515b6107b3576040805162461bcd60e51b815260206004820152600260248201527f5341000000000000000000000000000000000000000000000000000000000000604482015290519081900360640190fd5b5050505050565b604080516001600160a01b038481166024830152604480830185905283518084039091018152606490920183526020820180516001600160e01b03167fa9059cbb000000000000000000000000000000000000000000000000000000001781529251825160009485949389169392918291908083835b6020831061084f5780518252601f199092019160209182019101610830565b6001836020036101000a0380198251168184511680821785525050505050509050019150506000604051808303816000865af19150503d80600081146108b1576040519150601f19603f3d011682016040523d82523d6000602084013e6108b6565b606091505b50915091508180156108e45750805115806108e457508080602001905160208110156108e157600080fd5b50515b6107b3576040805162461bcd60e51b815260206004820152600260248201527f5354000000000000000000000000000000000000000000000000000000000000604482015290519081900360640190fd5b600060208284031215610946578081fd5b5035919050565b60006020828403121561095e578081fd5b5051919050565b60008060408385031215610977578081fd5b50508035926020909101359150565b6001600160a01b03169052565b6000815160a0845280518060a0860152825b818110156109c257602081840181015160c08884010152016109a5565b818111156109d3578360c083880101525b50602084015191506109e86020860183610986565b6040848101519086015260608085015190860152608093840151938501939093525050601f01601f19160160c00190565b6bffffffffffffffffffffffff19606096871b811682527fffffff000000000000000000000000000000000000000000000000000000000060e896871b8116601484015294871b811660178301529290941b909216602b840152921b909116602e82015260420190565b6001600160a01b0391909116815260200190565b6000602082526104a66020830184610993565b9081526020019056fea264697066735822122094cfd9bbe4668887cde08cadadef7adf035b03d1cd76f3d0a94def739b4a3c3764736f6c63430007060033",
  "linkReferences": {},
  "deployedLinkReferences": {}
}