{
  "_format": "hh-sol-artifact-1",
  "contractName": "MixedSwapToken",
  "sourceName": "contracts/MixedSwapToken.sol",
  "abi": [
    {
      "inputs": [],
      "name": "DAI",
      "outputs": [
        {
          "internalType": "address",
          "name": "",
          "type": "address"
        }
      ],
      "stateMutability": "view",
      "type": "function"
    },
    {
      "inputs": [],
      "name": "USDC",
      "outputs": [
        {
          "internalType": "address",
          "name": "",
          "type": "address"
        }
      ],
      "stateMutability": "view",
      "type": "function"
    },
    {
      "inputs": [],
      "name": "WETH",
      "outputs": [
        {
          "internalType": "address",
          "name": "",
          "type": "address"
        }
      ],
      "stateMutability": "view",
      "type": "function"
    },
    {
      "inputs": [
        {
          "internalType": "uint256",
          "name": "amountTokenIn",
          "type": "uint256"
        }
      ],
      "name": "mixedSwapTokenExactInput",
      "outputs": [
        {
          "internalType": "uint256",
          "name": "amountTokenOut",
          "type": "uint256"
        }
      ],
      "stateMutability": "nonpayable",
      "type": "function"
    },
    {
      "inputs": [
        {
          "internalType": "uint256",
          "name": "amountTokenOut",
          "type": "uint256"
        },
        {
          "internalType": "uint256",
          "name": "amountTokenInMax",
          "type": "uint256"
        }
      ],
      "name": "mixedSwapTokenExactOutput",
      "outputs": [
        {
          "internalType": "uint256",
          "name": "amountTokenIn",
          "type": "uint256"
        }
      ],
      "stateMutability": "nonpayable",
      "type": "function"
    },
    {
      "inputs": [],
      "name": "swapRouter",
      "outputs": [
        {
          "internalType": "contract ISwapRouter",
          "name": "",
          "type": "address"
        }
      ],
      "stateMutability": "view",
      "type": "function"
    }
  ],
  "bytecode": "0x608060405234801561001057600080fd5b506110ec806100206000396000f3fe608060405234801561001057600080fd5b50600436106100625760003560e01c806389a3027114610067578063ad5c464814610085578063c31c9c07146100a3578063e0bab4c4146100c1578063e116e246146100df578063e3308d361461010f575b600080fd5b61006f61013f565b60405161007c9190610973565b60405180910390f35b61008d610157565b60405161009a9190610973565b60405180910390f35b6100ab61016f565b6040516100b891906109ed565b60405180910390f35b6100c9610187565b6040516100d69190610973565b60405180910390f35b6100f960048036038101906100f49190610a43565b61019f565b6040516101069190610a92565b60405180910390f35b61012960048036038101906101249190610aad565b61039b565b6040516101369190610a92565b60405180910390f35b73a0b86991c6218b36c1d19d4a2e9eb0ce3606eb4881565b73c02aaa39b223fe8d0a0e5c4f27ead9083c756cc281565b73e592427a0aece92de3edee1f18e0157c0586156481565b736b175474e89094c44da98b954eedeac495271d0f81565b60006101c173c02aaa39b223fe8d0a0e5c4f27ead9083c756cc2333085610530565b6101f473c02aaa39b223fe8d0a0e5c4f27ead9083c756cc273e592427a0aece92de3edee1f18e0157c0586156484610688565b60006040518060a00160405280736b175474e89094c44da98b954eedeac495271d0f606473a0b86991c6218b36c1d19d4a2e9eb0ce3606eb48610bb873c02aaa39b223fe8d0a0e5c4f27ead9083c756cc2604051602001610259959493929190610b67565b60405160208183030381529060405281526020013373ffffffffffffffffffffffffffffffffffffffff16815260200142815260200185815260200184815250905073e592427a0aece92de3edee1f18e0157c0586156473ffffffffffffffffffffffffffffffffffffffff1663f28c0498826040518263ffffffff1660e01b81526004016102e89190610cea565b6020604051808303816000875af1158015610307573d6000803e3d6000fd5b505050506040513d601f19601f8201168201806040525081019061032b9190610d21565b9150828210156103945761036973c02aaa39b223fe8d0a0e5c4f27ead9083c756cc273e592427a0aece92de3edee1f18e0157c058615646000610688565b61039373c02aaa39b223fe8d0a0e5c4f27ead9083c756cc233848661038e9190610d7d565b6107dd565b5b5092915050565b60006103bd73c02aaa39b223fe8d0a0e5c4f27ead9083c756cc2333085610530565b6103f073c02aaa39b223fe8d0a0e5c4f27ead9083c756cc273e592427a0aece92de3edee1f18e0157c0586156484610688565b60006040518060a0016040528073c02aaa39b223fe8d0a0e5c4f27ead9083c756cc2610bb873a0b86991c6218b36c1d19d4a2e9eb0ce3606eb486064736b175474e89094c44da98b954eedeac495271d0f604051602001610455959493929190610b67565b60405160208183030381529060405281526020013373ffffffffffffffffffffffffffffffffffffffff1681526020014281526020018481526020016000815250905073e592427a0aece92de3edee1f18e0157c0586156473ffffffffffffffffffffffffffffffffffffffff1663c04b8d59826040518263ffffffff1660e01b81526004016104e59190610e27565b6020604051808303816000875af1158015610504573d6000803e3d6000fd5b505050506040513d601f19601f820116820180604052508101906105289190610d21565b915050919050565b6000808573ffffffffffffffffffffffffffffffffffffffff166323b872dd60e01b86868660405160240161056793929190610e49565b604051602081830303815290604052907bffffffffffffffffffffffffffffffffffffffffffffffffffffffff19166020820180517bffffffffffffffffffffffffffffffffffffffffffffffffffffffff83818316178352505050506040516105d19190610ebc565b6000604051808303816000865af19150503d806000811461060e576040519150601f19603f3d011682016040523d82523d6000602084013e610613565b606091505b5091509150818015610641575060008151148061064057508080602001905181019061063f9190610f0b565b5b5b610680576040517f08c379a000000000000000000000000000000000000000000000000000000000815260040161067790610f95565b60405180910390fd5b505050505050565b6000808473ffffffffffffffffffffffffffffffffffffffff1663095ea7b360e01b85856040516024016106bd929190610fb5565b604051602081830303815290604052907bffffffffffffffffffffffffffffffffffffffffffffffffffffffff19166020820180517bffffffffffffffffffffffffffffffffffffffffffffffffffffffff83818316178352505050506040516107279190610ebc565b6000604051808303816000865af19150503d8060008114610764576040519150601f19603f3d011682016040523d82523d6000602084013e610769565b606091505b509150915081801561079757506000815114806107965750808060200190518101906107959190610f0b565b5b5b6107d6576040517f08c379a00000000000000000000000000000000000000000000000000000000081526004016107cd9061102a565b60405180910390fd5b5050505050565b6000808473ffffffffffffffffffffffffffffffffffffffff1663a9059cbb60e01b8585604051602401610812929190610fb5565b604051602081830303815290604052907bffffffffffffffffffffffffffffffffffffffffffffffffffffffff19166020820180517bffffffffffffffffffffffffffffffffffffffffffffffffffffffff838183161783525050505060405161087c9190610ebc565b6000604051808303816000865af19150503d80600081146108b9576040519150601f19603f3d011682016040523d82523d6000602084013e6108be565b606091505b50915091508180156108ec57506000815114806108eb5750808060200190518101906108ea9190610f0b565b5b5b61092b576040517f08c379a000000000000000000000000000000000000000000000000000000000815260040161092290611096565b60405180910390fd5b5050505050565b600073ffffffffffffffffffffffffffffffffffffffff82169050919050565b600061095d82610932565b9050919050565b61096d81610952565b82525050565b60006020820190506109886000830184610964565b92915050565b6000819050919050565b60006109b36109ae6109a984610932565b61098e565b610932565b9050919050565b60006109c582610998565b9050919050565b60006109d7826109ba565b9050919050565b6109e7816109cc565b82525050565b6000602082019050610a0260008301846109de565b92915050565b600080fd5b6000819050919050565b610a2081610a0d565b8114610a2b57600080fd5b50565b600081359050610a3d81610a17565b92915050565b60008060408385031215610a5a57610a59610a08565b5b6000610a6885828601610a2e565b9250506020610a7985828601610a2e565b9150509250929050565b610a8c81610a0d565b82525050565b6000602082019050610aa76000830184610a83565b92915050565b600060208284031215610ac357610ac2610a08565b5b6000610ad184828501610a2e565b91505092915050565b60008160601b9050919050565b6000610af282610ada565b9050919050565b6000610b0482610ae7565b9050919050565b610b1c610b1782610952565b610af9565b82525050565b600062ffffff82169050919050565b60008160e81b9050919050565b6000610b4982610b31565b9050919050565b610b61610b5c82610b22565b610b3e565b82525050565b6000610b738288610b0b565b601482019150610b838287610b50565b600382019150610b938286610b0b565b601482019150610ba38285610b50565b600382019150610bb38284610b0b565b6014820191508190509695505050505050565b600081519050919050565b600082825260208201905092915050565b60005b83811015610c00578082015181840152602081019050610be5565b60008484015250505050565b6000601f19601f8301169050919050565b6000610c2882610bc6565b610c328185610bd1565b9350610c42818560208601610be2565b610c4b81610c0c565b840191505092915050565b610c5f81610952565b82525050565b610c6e81610a0d565b82525050565b600060a0830160008301518482036000860152610c918282610c1d565b9150506020830151610ca66020860182610c56565b506040830151610cb96040860182610c65565b506060830151610ccc6060860182610c65565b506080830151610cdf6080860182610c65565b508091505092915050565b60006020820190508181036000830152610d048184610c74565b905092915050565b600081519050610d1b81610a17565b92915050565b600060208284031215610d3757610d36610a08565b5b6000610d4584828501610d0c565b91505092915050565b7f4e487b7100000000000000000000000000000000000000000000000000000000600052601160045260246000fd5b6000610d8882610a0d565b9150610d9383610a0d565b9250828203905081811115610dab57610daa610d4e565b5b92915050565b600060a0830160008301518482036000860152610dce8282610c1d565b9150506020830151610de36020860182610c56565b506040830151610df66040860182610c65565b506060830151610e096060860182610c65565b506080830151610e1c6080860182610c65565b508091505092915050565b60006020820190508181036000830152610e418184610db1565b905092915050565b6000606082019050610e5e6000830186610964565b610e6b6020830185610964565b610e786040830184610a83565b949350505050565b600081905092915050565b6000610e9682610bc6565b610ea08185610e80565b9350610eb0818560208601610be2565b80840191505092915050565b6000610ec88284610e8b565b915081905092915050565b60008115159050919050565b610ee881610ed3565b8114610ef357600080fd5b50565b600081519050610f0581610edf565b92915050565b600060208284031215610f2157610f20610a08565b5b6000610f2f84828501610ef6565b91505092915050565b600082825260208201905092915050565b7f5354460000000000000000000000000000000000000000000000000000000000600082015250565b6000610f7f600383610f38565b9150610f8a82610f49565b602082019050919050565b60006020820190508181036000830152610fae81610f72565b9050919050565b6000604082019050610fca6000830185610964565b610fd76020830184610a83565b9392505050565b7f5341000000000000000000000000000000000000000000000000000000000000600082015250565b6000611014600283610f38565b915061101f82610fde565b602082019050919050565b6000602082019050818103600083015261104381611007565b9050919050565b7f5354000000000000000000000000000000000000000000000000000000000000600082015250565b6000611080600283610f38565b915061108b8261104a565b602082019050919050565b600060208201905081810360008301526110af81611073565b905091905056fea26469706673582212208b019eab8364efef90ee6cfda410541a9375a120f8a00005b1f5403869ae369d64736f6c63430008110033",
  "linkReferences": {},
  "deployedLinkReferences": {}
}